{
  "_format": "hh-sol-artifact-1",
  "contractName": "BibahoBondhon",
  "sourceName": "contracts/bibaho.sol",
  "abi": [
    {
      "inputs": [],
      "stateMutability": "nonpayable",
      "type": "constructor"
    },
    {
      "anonymous": false,
      "inputs": [
        {
          "indexed": false,
          "internalType": "uint256",
          "name": "certificateId",
          "type": "uint256"
        }
      ],
      "name": "CertificateApproved",
      "type": "event"
    },
    {
      "anonymous": false,
      "inputs": [
        {
          "indexed": false,
          "internalType": "uint256",
          "name": "certificateId",
          "type": "uint256"
        },
        {
          "indexed": false,
          "internalType": "address",
          "name": "bride",
          "type": "address"
        },
        {
          "indexed": false,
          "internalType": "address",
          "name": "groom",
          "type": "address"
        },
        {
          "indexed": false,
          "internalType": "string",
          "name": "ipfsHash",
          "type": "string"
        }
      ],
      "name": "CertificateCreated",
      "type": "event"
    },
    {
      "anonymous": false,
      "inputs": [
        {
          "indexed": false,
          "internalType": "uint256",
          "name": "certificateId",
          "type": "uint256"
        }
      ],
      "name": "CertificateDivorced",
      "type": "event"
    },
    {
      "anonymous": false,
      "inputs": [
        {
          "indexed": false,
          "internalType": "uint256",
          "name": "certificateId",
          "type": "uint256"
        }
      ],
      "name": "CertificateRegisteredWithAuthority",
      "type": "event"
    },
    {
      "anonymous": false,
      "inputs": [
        {
          "indexed": false,
          "internalType": "uint256",
          "name": "certificateId",
          "type": "uint256"
        }
      ],
      "name": "CertificateRejected",
      "type": "event"
    },
    {
      "anonymous": false,
      "inputs": [
        {
          "indexed": false,
          "internalType": "uint256",
          "name": "certificateId",
          "type": "uint256"
        },
        {
          "indexed": false,
          "internalType": "address",
          "name": "party",
          "type": "address"
        }
      ],
      "name": "ConsentGiven",
      "type": "event"
    },
    {
      "anonymous": false,
      "inputs": [
        {
          "indexed": false,
          "internalType": "uint256",
          "name": "certificateId",
          "type": "uint256"
        },
        {
          "indexed": false,
          "internalType": "string",
          "name": "newIpfsHash",
          "type": "string"
        }
      ],
      "name": "IPFSHashUpdated",
      "type": "event"
    },
    {
      "anonymous": false,
      "inputs": [
        {
          "indexed": false,
          "internalType": "uint256",
          "name": "certificateId",
          "type": "uint256"
        }
      ],
      "name": "KabinNamaGenerated",
      "type": "event"
    },
    {
      "anonymous": false,
      "inputs": [
        {
          "indexed": false,
          "internalType": "uint256",
          "name": "certificateId",
          "type": "uint256"
        },
        {
          "indexed": false,
          "internalType": "string",
          "name": "mahr",
          "type": "string"
        }
      ],
      "name": "MahrUpdated",
      "type": "event"
    },
    {
      "anonymous": false,
      "inputs": [
        {
          "indexed": false,
          "internalType": "uint256",
          "name": "certificateId",
          "type": "uint256"
        },
        {
          "indexed": false,
          "internalType": "string[]",
          "name": "newRules",
          "type": "string[]"
        }
      ],
      "name": "MarriageRulesUpdated",
      "type": "event"
    },
    {
      "anonymous": false,
      "inputs": [
        {
          "indexed": false,
          "internalType": "address",
          "name": "recipient",
          "type": "address"
        },
        {
          "indexed": false,
          "internalType": "string",
          "name": "message",
          "type": "string"
        }
      ],
      "name": "NotificationSent",
      "type": "event"
    },
    {
      "anonymous": false,
      "inputs": [
        {
          "indexed": true,
          "internalType": "address",
          "name": "previousOwner",
          "type": "address"
        },
        {
          "indexed": true,
          "internalType": "address",
          "name": "newOwner",
          "type": "address"
        }
      ],
      "name": "OwnershipTransferred",
      "type": "event"
    },
    {
      "anonymous": false,
      "inputs": [
        {
          "indexed": false,
          "internalType": "uint256",
          "name": "certificateId",
          "type": "uint256"
        },
        {
          "indexed": false,
          "internalType": "address",
          "name": "party",
          "type": "address"
        },
        {
          "indexed": false,
          "internalType": "string",
          "name": "newName",
          "type": "string"
        },
        {
          "indexed": false,
          "internalType": "string",
          "name": "newIdNumber",
          "type": "string"
        },
        {
          "indexed": false,
          "internalType": "address",
          "name": "newWalletAddress",
          "type": "address"
        }
      ],
      "name": "PersonalInfoUpdated",
      "type": "event"
    },
    {
      "anonymous": false,
      "inputs": [
        {
          "indexed": false,
          "internalType": "uint256",
          "name": "certificateId",
          "type": "uint256"
        },
        {
          "indexed": false,
          "internalType": "string",
          "name": "prenupHash",
          "type": "string"
        }
      ],
      "name": "PrenupAdded",
      "type": "event"
    },
    {
      "anonymous": false,
      "inputs": [
        {
          "indexed": false,
          "internalType": "uint256",
          "name": "certificateId",
          "type": "uint256"
        },
        {
          "indexed": false,
          "internalType": "uint256",
          "name": "witnessIndex",
          "type": "uint256"
        },
        {
          "indexed": false,
          "internalType": "string",
          "name": "newName",
          "type": "string"
        },
        {
          "indexed": false,
          "internalType": "string",
          "name": "newIdNumber",
          "type": "string"
        },
        {
          "indexed": false,
          "internalType": "address",
          "name": "newWalletAddress",
          "type": "address"
        }
      ],
      "name": "WitnessInfoUpdated",
      "type": "event"
    },
    {
      "inputs": [
        {
          "internalType": "uint256",
          "name": "_certificateId",
          "type": "uint256"
        },
        {
          "internalType": "string",
          "name": "_prenupHash",
          "type": "string"
        }
      ],
      "name": "addPrenup",
      "outputs": [],
      "stateMutability": "nonpayable",
      "type": "function"
    },
    {
      "inputs": [
        {
          "internalType": "uint256",
          "name": "_certificateId",
          "type": "uint256"
        }
      ],
      "name": "approveCertificate",
      "outputs": [],
      "stateMutability": "nonpayable",
      "type": "function"
    },
    {
      "inputs": [],
      "name": "certificateCount",
      "outputs": [
        {
          "internalType": "uint256",
          "name": "",
          "type": "uint256"
        }
      ],
      "stateMutability": "view",
      "type": "function"
    },
    {
      "inputs": [
        {
          "internalType": "uint256",
          "name": "",
          "type": "uint256"
        }
      ],
      "name": "certificates",
      "outputs": [
        {
          "components": [
            {
              "internalType": "string",
              "name": "name",
              "type": "string"
            },
            {
              "internalType": "string",
              "name": "idNumber",
              "type": "string"
            },
            {
              "internalType": "address",
              "name": "walletAddress",
              "type": "address"
            }
          ],
          "internalType": "struct BibahoBondhon.Person",
          "name": "bride",
          "type": "tuple"
        },
        {
          "components": [
            {
              "internalType": "string",
              "name": "name",
              "type": "string"
            },
            {
              "internalType": "string",
              "name": "idNumber",
              "type": "string"
            },
            {
              "internalType": "address",
              "name": "walletAddress",
              "type": "address"
            }
          ],
          "internalType": "struct BibahoBondhon.Person",
          "name": "groom",
          "type": "tuple"
        },
        {
          "internalType": "uint256",
          "name": "timestamp",
          "type": "uint256"
        },
        {
          "internalType": "string",
          "name": "ipfsHash",
          "type": "string"
        },
        {
          "internalType": "enum BibahoBondhon.Status",
          "name": "status",
          "type": "uint8"
        },
        {
          "internalType": "string",
          "name": "prenupHash",
          "type": "string"
        },
        {
          "internalType": "string",
          "name": "mahr",
          "type": "string"
        },
        {
          "internalType": "bool",
          "name": "brideConsent",
          "type": "bool"
        },
        {
          "internalType": "bool",
          "name": "groomConsent",
          "type": "bool"
        }
      ],
      "stateMutability": "view",
      "type": "function"
    },
    {
      "inputs": [
        {
          "internalType": "address",
          "name": "_walletAddress",
          "type": "address"
        }
      ],
      "name": "checkPreviousMarriages",
      "outputs": [
        {
          "internalType": "uint256[]",
          "name": "",
          "type": "uint256[]"
        }
      ],
      "stateMutability": "view",
      "type": "function"
    },
    {
      "inputs": [
        {
          "internalType": "string",
          "name": "_brideName",
          "type": "string"
        },
        {
          "internalType": "string",
          "name": "_brideIdNumber",
          "type": "string"
        },
        {
          "internalType": "address",
          "name": "_brideWalletAddress",
          "type": "address"
        },
        {
          "internalType": "string",
          "name": "_groomName",
          "type": "string"
        },
        {
          "internalType": "string",
          "name": "_groomIdNumber",
          "type": "string"
        },
        {
          "internalType": "address",
          "name": "_groomWalletAddress",
          "type": "address"
        },
        {
          "internalType": "string[]",
          "name": "_witnessNames",
          "type": "string[]"
        },
        {
          "internalType": "string[]",
          "name": "_witnessIdNumbers",
          "type": "string[]"
        },
        {
          "internalType": "address[]",
          "name": "_witnessWalletAddresses",
          "type": "address[]"
        },
        {
          "internalType": "string",
          "name": "_ipfsHash",
          "type": "string"
        },
        {
          "internalType": "string",
          "name": "_mahr",
          "type": "string"
        }
      ],
      "name": "createCertificate",
      "outputs": [],
      "stateMutability": "nonpayable",
      "type": "function"
    },
    {
      "inputs": [
        {
          "internalType": "uint256",
          "name": "_certificateId",
          "type": "uint256"
        }
      ],
      "name": "generateKabinNama",
      "outputs": [],
      "stateMutability": "nonpayable",
      "type": "function"
    },
    {
      "inputs": [
        {
          "internalType": "uint256",
          "name": "_certificateId",
          "type": "uint256"
        }
      ],
      "name": "getCertificate",
      "outputs": [
        {
          "components": [
            {
              "components": [
                {
                  "internalType": "string",
                  "name": "name",
                  "type": "string"
                },
                {
                  "internalType": "string",
                  "name": "idNumber",
                  "type": "string"
                },
                {
                  "internalType": "address",
                  "name": "walletAddress",
                  "type": "address"
                }
              ],
              "internalType": "struct BibahoBondhon.Person",
              "name": "bride",
              "type": "tuple"
            },
            {
              "components": [
                {
                  "internalType": "string",
                  "name": "name",
                  "type": "string"
                },
                {
                  "internalType": "string",
                  "name": "idNumber",
                  "type": "string"
                },
                {
                  "internalType": "address",
                  "name": "walletAddress",
                  "type": "address"
                }
              ],
              "internalType": "struct BibahoBondhon.Person",
              "name": "groom",
              "type": "tuple"
            },
            {
              "components": [
                {
                  "internalType": "string",
                  "name": "name",
                  "type": "string"
                },
                {
                  "internalType": "string",
                  "name": "idNumber",
                  "type": "string"
                },
                {
                  "internalType": "address",
                  "name": "walletAddress",
                  "type": "address"
                }
              ],
              "internalType": "struct BibahoBondhon.Person[]",
              "name": "witnesses",
              "type": "tuple[]"
            },
            {
              "internalType": "uint256",
              "name": "timestamp",
              "type": "uint256"
            },
            {
              "internalType": "string",
              "name": "ipfsHash",
              "type": "string"
            },
            {
              "internalType": "enum BibahoBondhon.Status",
              "name": "status",
              "type": "uint8"
            },
            {
              "internalType": "string",
              "name": "prenupHash",
              "type": "string"
            },
            {
              "internalType": "string[]",
              "name": "marriageRules",
              "type": "string[]"
            },
            {
              "internalType": "string",
              "name": "mahr",
              "type": "string"
            },
            {
              "internalType": "bool",
              "name": "brideConsent",
              "type": "bool"
            },
            {
              "internalType": "bool",
              "name": "groomConsent",
              "type": "bool"
            }
          ],
          "internalType": "struct BibahoBondhon.Certificate",
          "name": "",
          "type": "tuple"
        }
      ],
      "stateMutability": "view",
      "type": "function"
    },
    {
      "inputs": [
        {
          "internalType": "uint256",
          "name": "_certificateId",
          "type": "uint256"
        }
      ],
      "name": "giveConsent",
      "outputs": [],
      "stateMutability": "nonpayable",
      "type": "function"
    },
    {
      "inputs": [
        {
          "internalType": "address",
          "name": "_brideWalletAddress",
          "type": "address"
        }
      ],
      "name": "isBrideCurrentlyMarried",
      "outputs": [
        {
          "internalType": "bool",
          "name": "",
          "type": "bool"
        }
      ],
      "stateMutability": "view",
      "type": "function"
    },
    {
      "inputs": [
        {
          "internalType": "address",
          "name": "_groomWalletAddress",
          "type": "address"
        }
      ],
      "name": "isGroomMarriedToMoreThanFour",
      "outputs": [
        {
          "internalType": "bool",
          "name": "",
          "type": "bool"
        }
      ],
      "stateMutability": "view",
      "type": "function"
    },
    {
      "inputs": [
        {
          "internalType": "address",
          "name": "",
          "type": "address"
        },
        {
          "internalType": "uint256",
          "name": "",
          "type": "uint256"
        }
      ],
      "name": "marriagesByAddress",
      "outputs": [
        {
          "internalType": "uint256",
          "name": "",
          "type": "uint256"
        }
      ],
      "stateMutability": "view",
      "type": "function"
    },
    {
      "inputs": [],
      "name": "owner",
      "outputs": [
        {
          "internalType": "address",
          "name": "",
          "type": "address"
        }
      ],
      "stateMutability": "view",
      "type": "function"
    },
    {
      "inputs": [
        {
          "internalType": "uint256",
          "name": "_certificateId",
          "type": "uint256"
        }
      ],
      "name": "registerDivorce",
      "outputs": [],
      "stateMutability": "nonpayable",
      "type": "function"
    },
    {
      "inputs": [
        {
          "internalType": "uint256",
          "name": "_certificateId",
          "type": "uint256"
        }
      ],
      "name": "registerWithLocalAuthorities",
      "outputs": [],
      "stateMutability": "nonpayable",
      "type": "function"
    },
    {
      "inputs": [
        {
          "internalType": "uint256",
          "name": "_certificateId",
          "type": "uint256"
        }
      ],
      "name": "rejectCertificate",
      "outputs": [],
      "stateMutability": "nonpayable",
      "type": "function"
    },
    {
      "inputs": [
        {
          "internalType": "address",
          "name": "_recipient",
          "type": "address"
        },
        {
          "internalType": "string",
          "name": "_message",
          "type": "string"
        }
      ],
      "name": "sendNotification",
      "outputs": [],
      "stateMutability": "nonpayable",
      "type": "function"
    },
    {
      "inputs": [
        {
          "internalType": "address",
          "name": "_newOwner",
          "type": "address"
        }
      ],
      "name": "transferOwnership",
      "outputs": [],
      "stateMutability": "nonpayable",
      "type": "function"
    },
    {
      "inputs": [
        {
          "internalType": "uint256",
          "name": "_certificateId",
          "type": "uint256"
        },
        {
          "internalType": "string",
          "name": "_newIpfsHash",
          "type": "string"
        }
      ],
      "name": "updateIPFSHash",
      "outputs": [],
      "stateMutability": "nonpayable",
      "type": "function"
    },
    {
      "inputs": [
        {
          "internalType": "uint256",
          "name": "_certificateId",
          "type": "uint256"
        },
        {
          "internalType": "string",
          "name": "_mahr",
          "type": "string"
        }
      ],
      "name": "updateMahr",
      "outputs": [],
      "stateMutability": "nonpayable",
      "type": "function"
    },
    {
      "inputs": [
        {
          "internalType": "uint256",
          "name": "_certificateId",
          "type": "uint256"
        },
        {
          "internalType": "string[]",
          "name": "_newRules",
          "type": "string[]"
        }
      ],
      "name": "updateMarriageRules",
      "outputs": [],
      "stateMutability": "nonpayable",
      "type": "function"
    },
    {
      "inputs": [
        {
          "internalType": "uint256",
          "name": "_certificateId",
          "type": "uint256"
        },
        {
          "internalType": "string",
          "name": "_newName",
          "type": "string"
        },
        {
          "internalType": "string",
          "name": "_newIdNumber",
          "type": "string"
        },
        {
          "internalType": "address",
          "name": "_newWalletAddress",
          "type": "address"
        }
      ],
      "name": "updatePersonalInfo",
      "outputs": [],
      "stateMutability": "nonpayable",
      "type": "function"
    },
    {
      "inputs": [
        {
          "internalType": "uint256",
          "name": "_certificateId",
          "type": "uint256"
        },
        {
          "internalType": "uint256",
          "name": "_witnessIndex",
          "type": "uint256"
        },
        {
          "internalType": "string",
          "name": "_newName",
          "type": "string"
        },
        {
          "internalType": "string",
          "name": "_newIdNumber",
          "type": "string"
        },
        {
          "internalType": "address",
          "name": "_newWalletAddress",
          "type": "address"
        }
      ],
      "name": "updateWitnessInfo",
      "outputs": [],
      "stateMutability": "nonpayable",
      "type": "function"
    }
  ],
  "bytecode": "0x608060405234801561001057600080fd5b5033600360006101000a81548173ffffffffffffffffffffffffffffffffffffffff021916908373ffffffffffffffffffffffffffffffffffffffff1602179055506146ba806100616000396000f3fe608060405234801561001057600080fd5b506004361061014d5760003560e01c806376689d98116100c3578063c0d417ef1161007c578063c0d417ef14610376578063d5c0ec16146103a6578063e38f46a6146103c2578063f2fde38b146103f2578063f40255681461040e578063fff4bd5f1461042a5761014d565b806376689d98146102cc57806380a69c2a146102e85780638da5cb5b146103045780639162c1cb14610322578063a2a48b7f1461033e578063a81cbf501461035a5761014d565b806351640fee1161011557806351640fee146101f257806352d7b89c1461022257806355020642146102405780635649acca1461025c578063657f5a6014610278578063663b3e22146102945761014d565b806303ffebe114610152578063172da1f21461016e5780631f97a2381461019e57806349f66a2c146101ba578063514e06c6146101d6575b600080fd5b61016c600480360381019061016791906135d6565b61045a565b005b61018860048036038101906101839190613199565b6105d9565b6040516101959190613cbc565b60405180910390f35b6101b860048036038101906101b39190613452565b610725565b005b6101d460048036038101906101cf91906131c6565b61082d565b005b6101f060048036038101906101eb9190613262565b6108fa565b005b61020c60048036038101906102079190613452565b610fb6565b6040516102199190613dd7565b60405180910390f35b61022a6117e2565b6040516102379190613ea9565b60405180910390f35b61025a60048036038101906102559190613537565b6117e8565b005b61027660048036038101906102719190613452565b611a3c565b005b610292600480360381019061028d9190613452565b611c3d565b005b6102ae60048036038101906102a99190613452565b611d07565b6040516102c399989796959493929190613df9565b60405180910390f35b6102e660048036038101906102e191906134db565b61221c565b005b61030260048036038101906102fd91906134db565b612313565b005b61030c61240a565b6040516103199190613c4f565b60405180910390f35b61033c600480360381019061033791906134db565b612430565b005b61035860048036038101906103539190613452565b61258f565b005b610374600480360381019061036f9190613452565b612659565b005b610390600480360381019061038b9190613199565b612761565b60405161039d9190613cbc565b60405180910390f35b6103c060048036038101906103bb919061347f565b612893565b005b6103dc60048036038101906103d79190613199565b61298a565b6040516103e99190613c9a565b60405180910390f35b61040c60048036038101906104079190613199565b612a21565b005b61042860048036038101906104239190613452565b612be1565b005b610444600480360381019061043f9190613222565b612d5a565b6040516104519190613ea9565b60405180910390f35b60008060008781526020019081526020016000209050806006018054905085106104b9576040517f08c379a00000000000000000000000000000000000000000000000000000000081526004016104b090613d17565b60405180910390fd5b60405180606001604052808581526020018481526020018373ffffffffffffffffffffffffffffffffffffffff16815250816006018681548110610500576104ff6143da565b5b9060005260206000209060030201600082015181600001908051906020019061052a929190612d8b565b506020820151816001019080519060200190610547929190612d8b565b5060408201518160020160006101000a81548173ffffffffffffffffffffffffffffffffffffffff021916908373ffffffffffffffffffffffffffffffffffffffff1602179055509050507f20651d3bce34755c531b129e784a289493733e3301c2bc3cc4d26a2081dc771386868686866040516105c9959493929190613ffa565b60405180910390a1505050505050565b600080600160008473ffffffffffffffffffffffffffffffffffffffff1673ffffffffffffffffffffffffffffffffffffffff16815260200190815260200160002080548060200260200160405190810160405280929190818152602001828054801561066557602002820191906000526020600020905b815481526020019060010190808311610651575b505050505090506000805b8251811015610718576001600381111561068d5761068c61437c565b5b6000808584815181106106a3576106a26143da565b5b6020026020010151815260200190815260200160002060090160009054906101000a900460ff1660038111156106dc576106db61437c565b5b14156107055781806106ed90614304565b925050600482106107045760019350505050610720565b5b808061071090614304565b915050610670565b506000925050505b919050565b600360009054906101000a900473ffffffffffffffffffffffffffffffffffffffff1673ffffffffffffffffffffffffffffffffffffffff163373ffffffffffffffffffffffffffffffffffffffff16146107b5576040517f08c379a00000000000000000000000000000000000000000000000000000000081526004016107ac90613cf7565b60405180910390fd5b600260008083815260200190815260200160002060090160006101000a81548160ff021916908360038111156107ee576107ed61437c565b5b02179055507f1fcb0e58db76709527add01ffe9214be47f647f7dfdf84d1a3c341c5eec70167816040516108229190613ea9565b60405180910390a150565b600360009054906101000a900473ffffffffffffffffffffffffffffffffffffffff1673ffffffffffffffffffffffffffffffffffffffff163373ffffffffffffffffffffffffffffffffffffffff16146108bd576040517f08c379a00000000000000000000000000000000000000000000000000000000081526004016108b490613cf7565b60405180910390fd5b7f2a7838cbc4deb7bf40319be175f9abfbd110b62bcdfd6dea91b9d3fc6b5db2d382826040516108ee929190613c6a565b60405180910390a15050565b8351855114801561090c575082518451145b61094b576040517f08c379a000000000000000000000000000000000000000000000000000000000815260040161094290613d37565b60405180910390fd5b600060405180606001604052808d81526020018c81526020018b73ffffffffffffffffffffffffffffffffffffffff168152509050600060405180606001604052808b81526020018a81526020018973ffffffffffffffffffffffffffffffffffffffff1681525090506000875167ffffffffffffffff8111156109d2576109d1614409565b5b604051908082528060200260200182016040528015610a0b57816020015b6109f8612e11565b8152602001906001900390816109f05790505b50905060005b8851811015610aca5760405180606001604052808a8381518110610a3857610a376143da565b5b60200260200101518152602001898381518110610a5857610a576143da565b5b60200260200101518152602001888381518110610a7857610a776143da565b5b602002602001015173ffffffffffffffffffffffffffffffffffffffff16815250828281518110610aac57610aab6143da565b5b60200260200101819052508080610ac290614304565b915050610a11565b508260008060025481526020019081526020016000206000016000820151816000019080519060200190610aff929190612d8b565b506020820151816001019080519060200190610b1c929190612d8b565b5060408201518160020160006101000a81548173ffffffffffffffffffffffffffffffffffffffff021916908373ffffffffffffffffffffffffffffffffffffffff1602179055509050508160008060025481526020019081526020016000206003016000820151816000019080519060200190610b9b929190612d8b565b506020820151816001019080519060200190610bb8929190612d8b565b5060408201518160020160006101000a81548173ffffffffffffffffffffffffffffffffffffffff021916908373ffffffffffffffffffffffffffffffffffffffff160217905550905050426000806002548152602001908152602001600020600701819055508460008060025481526020019081526020016000206008019080519060200190610c4a929190612d8b565b506000806000600254815260200190815260200160002060090160006101000a81548160ff02191690836003811115610c8657610c8561437c565b5b0217905550604051806020016040528060008152506000806002548152602001908152602001600020600a019080519060200190610cc5929190612d8b565b50836000806002548152602001908152602001600020600c019080519060200190610cf1929190612d8b565b5060008060006002548152602001908152602001600020600d0160006101000a81548160ff02191690831515021790555060008060006002548152602001908152602001600020600d0160016101000a81548160ff02191690831515021790555060005b8151811015610e4f576000806002548152602001908152602001600020600601828281518110610d8857610d876143da565b5b602002602001015190806001815401808255809150506001900390600052602060002090600302016000909190919091506000820151816000019080519060200190610dd5929190612d8b565b506020820151816001019080519060200190610df2929190612d8b565b5060408201518160020160006101000a81548173ffffffffffffffffffffffffffffffffffffffff021916908373ffffffffffffffffffffffffffffffffffffffff16021790555050508080610e4790614304565b915050610d55565b506060806000806002548152602001908152602001600020600b019080519060200190610e7d929190612e48565b50600160008e73ffffffffffffffffffffffffffffffffffffffff1673ffffffffffffffffffffffffffffffffffffffff1681526020019081526020016000206002549080600181540180825580915050600190039060005260206000200160009091909190915055600160008b73ffffffffffffffffffffffffffffffffffffffff1673ffffffffffffffffffffffffffffffffffffffff16815260200190815260200160002060025490806001815401808255809150506001900390600052602060002001600090919091909150557f6b69c4c40bef16181e0119ff440774d2c46e468893df8770506b7d82fa870aae6002548e8c89604051610f859493929190613eed565b60405180910390a160026000815480929190610fa090614304565b9190505550505050505050505050505050505050565b610fbe612ea8565b6000808381526020019081526020016000206040518061016001604052908160008201604051806060016040529081600082018054610ffc906142a1565b80601f0160208091040260200160405190810160405280929190818152602001828054611028906142a1565b80156110755780601f1061104a57610100808354040283529160200191611075565b820191906000526020600020905b81548152906001019060200180831161105857829003601f168201915b5050505050815260200160018201805461108e906142a1565b80601f01602080910402602001604051908101604052809291908181526020018280546110ba906142a1565b80156111075780601f106110dc57610100808354040283529160200191611107565b820191906000526020600020905b8154815290600101906020018083116110ea57829003601f168201915b505050505081526020016002820160009054906101000a900473ffffffffffffffffffffffffffffffffffffffff1673ffffffffffffffffffffffffffffffffffffffff1673ffffffffffffffffffffffffffffffffffffffff168152505081526020016003820160405180606001604052908160008201805461118a906142a1565b80601f01602080910402602001604051908101604052809291908181526020018280546111b6906142a1565b80156112035780601f106111d857610100808354040283529160200191611203565b820191906000526020600020905b8154815290600101906020018083116111e657829003601f168201915b5050505050815260200160018201805461121c906142a1565b80601f0160208091040260200160405190810160405280929190818152602001828054611248906142a1565b80156112955780601f1061126a57610100808354040283529160200191611295565b820191906000526020600020905b81548152906001019060200180831161127857829003601f168201915b505050505081526020016002820160009054906101000a900473ffffffffffffffffffffffffffffffffffffffff1673ffffffffffffffffffffffffffffffffffffffff1673ffffffffffffffffffffffffffffffffffffffff1681525050815260200160068201805480602002602001604051908101604052809291908181526020016000905b828210156114c95783829060005260206000209060030201604051806060016040529081600082018054611350906142a1565b80601f016020809104026020016040519081016040528092919081815260200182805461137c906142a1565b80156113c95780601f1061139e576101008083540402835291602001916113c9565b820191906000526020600020905b8154815290600101906020018083116113ac57829003601f168201915b505050505081526020016001820180546113e2906142a1565b80601f016020809104026020016040519081016040528092919081815260200182805461140e906142a1565b801561145b5780601f106114305761010080835404028352916020019161145b565b820191906000526020600020905b81548152906001019060200180831161143e57829003601f168201915b505050505081526020016002820160009054906101000a900473ffffffffffffffffffffffffffffffffffffffff1673ffffffffffffffffffffffffffffffffffffffff1673ffffffffffffffffffffffffffffffffffffffff16815250508152602001906001019061131d565b505050508152602001600782015481526020016008820180546114eb906142a1565b80601f0160208091040260200160405190810160405280929190818152602001828054611517906142a1565b80156115645780601f1061153957610100808354040283529160200191611564565b820191906000526020600020905b81548152906001019060200180831161154757829003601f168201915b505050505081526020016009820160009054906101000a900460ff1660038111156115925761159161437c565b5b60038111156115a4576115a361437c565b5b8152602001600a820180546115b8906142a1565b80601f01602080910402602001604051908101604052809291908181526020018280546115e4906142a1565b80156116315780601f1061160657610100808354040283529160200191611631565b820191906000526020600020905b81548152906001019060200180831161161457829003601f168201915b50505050508152602001600b8201805480602002602001604051908101604052809291908181526020016000905b8282101561170b57838290600052602060002001805461167e906142a1565b80601f01602080910402602001604051908101604052809291908181526020018280546116aa906142a1565b80156116f75780601f106116cc576101008083540402835291602001916116f7565b820191906000526020600020905b8154815290600101906020018083116116da57829003601f168201915b50505050508152602001906001019061165f565b505050508152602001600c82018054611723906142a1565b80601f016020809104026020016040519081016040528092919081815260200182805461174f906142a1565b801561179c5780601f106117715761010080835404028352916020019161179c565b820191906000526020600020905b81548152906001019060200180831161177f57829003601f168201915b50505050508152602001600d820160009054906101000a900460ff16151515158152602001600d820160019054906101000a900460ff1615151515815250509050919050565b60025481565b600080600086815260200190815260200160002090508060000160020160009054906101000a900473ffffffffffffffffffffffffffffffffffffffff1673ffffffffffffffffffffffffffffffffffffffff163373ffffffffffffffffffffffffffffffffffffffff1614156118dc5783816000016000019080519060200190611874929190612d8b565b5082816000016001019080519060200190611890929190612d8b565b50818160000160020160006101000a81548173ffffffffffffffffffffffffffffffffffffffff021916908373ffffffffffffffffffffffffffffffffffffffff1602179055506119f6565b8060030160020160009054906101000a900473ffffffffffffffffffffffffffffffffffffffff1673ffffffffffffffffffffffffffffffffffffffff163373ffffffffffffffffffffffffffffffffffffffff1614156119ba5783816003016000019080519060200190611952929190612d8b565b508281600301600101908051906020019061196e929190612d8b565b50818160030160020160006101000a81548173ffffffffffffffffffffffffffffffffffffffff021916908373ffffffffffffffffffffffffffffffffffffffff1602179055506119f5565b6040517f08c379a00000000000000000000000000000000000000000000000000000000081526004016119ec90613db7565b60405180910390fd5b5b7fc259c33dd4de5b9c322ae213467bca270ffbc88c55e9d37f2d6e39cf4378541f8533868686604051611a2d959493929190613f39565b60405180910390a15050505050565b6000806000838152602001908152602001600020905060006003811115611a6657611a6561437c565b5b8160090160009054906101000a900460ff166003811115611a8a57611a8961437c565b5b14611aca576040517f08c379a0000000000000000000000000000000000000000000000000000000008152600401611ac190613d57565b60405180910390fd5b8060000160020160009054906101000a900473ffffffffffffffffffffffffffffffffffffffff1673ffffffffffffffffffffffffffffffffffffffff163373ffffffffffffffffffffffffffffffffffffffff161415611b4757600181600d0160006101000a81548160ff021916908315150217905550611c00565b8060030160020160009054906101000a900473ffffffffffffffffffffffffffffffffffffffff1673ffffffffffffffffffffffffffffffffffffffff163373ffffffffffffffffffffffffffffffffffffffff161415611bc457600181600d0160016101000a81548160ff021916908315150217905550611bff565b6040517f08c379a0000000000000000000000000000000000000000000000000000000008152600401611bf690613db7565b60405180910390fd5b5b7ffaff9d6e9dcb1cc023061eb19e57affbea9bc17d7d83f953c2b62eb4af88977e8233604051611c31929190613ec4565b60405180910390a15050565b600360009054906101000a900473ffffffffffffffffffffffffffffffffffffffff1673ffffffffffffffffffffffffffffffffffffffff163373ffffffffffffffffffffffffffffffffffffffff1614611ccd576040517f08c379a0000000000000000000000000000000000000000000000000000000008152600401611cc490613cf7565b60405180910390fd5b7fcbaa3015bffd20c3c48f3431ac81d5426867a92e1aba99185be0aa35b50bd86781604051611cfc9190613ea9565b60405180910390a150565b600060205280600052604060002060009150905080600001604051806060016040529081600082018054611d3a906142a1565b80601f0160208091040260200160405190810160405280929190818152602001828054611d66906142a1565b8015611db35780601f10611d8857610100808354040283529160200191611db3565b820191906000526020600020905b815481529060010190602001808311611d9657829003601f168201915b50505050508152602001600182018054611dcc906142a1565b80601f0160208091040260200160405190810160405280929190818152602001828054611df8906142a1565b8015611e455780601f10611e1a57610100808354040283529160200191611e45565b820191906000526020600020905b815481529060010190602001808311611e2857829003601f168201915b505050505081526020016002820160009054906101000a900473ffffffffffffffffffffffffffffffffffffffff1673ffffffffffffffffffffffffffffffffffffffff1673ffffffffffffffffffffffffffffffffffffffff16815250509080600301604051806060016040529081600082018054611ec4906142a1565b80601f0160208091040260200160405190810160405280929190818152602001828054611ef0906142a1565b8015611f3d5780601f10611f1257610100808354040283529160200191611f3d565b820191906000526020600020905b815481529060010190602001808311611f2057829003601f168201915b50505050508152602001600182018054611f56906142a1565b80601f0160208091040260200160405190810160405280929190818152602001828054611f82906142a1565b8015611fcf5780601f10611fa457610100808354040283529160200191611fcf565b820191906000526020600020905b815481529060010190602001808311611fb257829003601f168201915b505050505081526020016002820160009054906101000a900473ffffffffffffffffffffffffffffffffffffffff1673ffffffffffffffffffffffffffffffffffffffff1673ffffffffffffffffffffffffffffffffffffffff168152505090806007015490806008018054612044906142a1565b80601f0160208091040260200160405190810160405280929190818152602001828054612070906142a1565b80156120bd5780601f10612092576101008083540402835291602001916120bd565b820191906000526020600020905b8154815290600101906020018083116120a057829003601f168201915b5050505050908060090160009054906101000a900460ff169080600a0180546120e5906142a1565b80601f0160208091040260200160405190810160405280929190818152602001828054612111906142a1565b801561215e5780601f106121335761010080835404028352916020019161215e565b820191906000526020600020905b81548152906001019060200180831161214157829003601f168201915b50505050509080600c018054612173906142a1565b80601f016020809104026020016040519081016040528092919081815260200182805461219f906142a1565b80156121ec5780601f106121c1576101008083540402835291602001916121ec565b820191906000526020600020905b8154815290600101906020018083116121cf57829003601f168201915b50505050509080600d0160009054906101000a900460ff169080600d0160019054906101000a900460ff16905089565b600360009054906101000a900473ffffffffffffffffffffffffffffffffffffffff1673ffffffffffffffffffffffffffffffffffffffff163373ffffffffffffffffffffffffffffffffffffffff16146122ac576040517f08c379a00000000000000000000000000000000000000000000000000000000081526004016122a390613cf7565b60405180910390fd5b80600080848152602001908152602001600020600c0190805190602001906122d5929190612d8b565b507f59d69fa69421fe3eb3261bca1bc4fc87785fc7a34e2eb847ce73bc06002ae0f78282604051612307929190613fca565b60405180910390a15050565b600360009054906101000a900473ffffffffffffffffffffffffffffffffffffffff1673ffffffffffffffffffffffffffffffffffffffff163373ffffffffffffffffffffffffffffffffffffffff16146123a3576040517f08c379a000000000000000000000000000000000000000000000000000000000815260040161239a90613cf7565b60405180910390fd5b8060008084815260200190815260200160002060080190805190602001906123cc929190612d8b565b507f609fafa9172a967760a94ba36a0408a929aaa66948beccd7e9bb986ec6cac2ca82826040516123fe929190613fca565b60405180910390a15050565b600360009054906101000a900473ffffffffffffffffffffffffffffffffffffffff1681565b600080600084815260200190815260200160002090508060000160020160009054906101000a900473ffffffffffffffffffffffffffffffffffffffff1673ffffffffffffffffffffffffffffffffffffffff163373ffffffffffffffffffffffffffffffffffffffff1614806124f957508060030160020160009054906101000a900473ffffffffffffffffffffffffffffffffffffffff1673ffffffffffffffffffffffffffffffffffffffff163373ffffffffffffffffffffffffffffffffffffffff16145b612538576040517f08c379a000000000000000000000000000000000000000000000000000000000815260040161252f90613d77565b60405180910390fd5b8181600a019080519060200190612550929190612d8b565b507f885f6e0bb6bddbd169b64aa63e76b74abe75f928c1da7096b31ab82a66b1d8598383604051612582929190613fca565b60405180910390a1505050565b600360009054906101000a900473ffffffffffffffffffffffffffffffffffffffff1673ffffffffffffffffffffffffffffffffffffffff163373ffffffffffffffffffffffffffffffffffffffff161461261f576040517f08c379a000000000000000000000000000000000000000000000000000000000815260040161261690613cf7565b60405180910390fd5b7f3daab8cdb4698a60cd437e3e160f44b31e9dbd4e41cd3a924d638b56f6f4382c8160405161264e9190613ea9565b60405180910390a150565b600360009054906101000a900473ffffffffffffffffffffffffffffffffffffffff1673ffffffffffffffffffffffffffffffffffffffff163373ffffffffffffffffffffffffffffffffffffffff16146126e9576040517f08c379a00000000000000000000000000000000000000000000000000000000081526004016126e090613cf7565b60405180910390fd5b600360008083815260200190815260200160002060090160006101000a81548160ff021916908360038111156127225761272161437c565b5b02179055507f20b3476cf2cd138e31dfbdc09d0edf472653ad30edac00f021ad045adc351586816040516127569190613ea9565b60405180910390a150565b600080600160008473ffffffffffffffffffffffffffffffffffffffff1673ffffffffffffffffffffffffffffffffffffffff1681526020019081526020016000208054806020026020016040519081016040528092919081815260200182805480156127ed57602002820191906000526020600020905b8154815260200190600101908083116127d9575b5050505050905060005b815181101561288757600160038111156128145761281361437c565b5b60008084848151811061282a576128296143da565b5b6020026020010151815260200190815260200160002060090160009054906101000a900460ff1660038111156128635761286261437c565b5b14156128745760019250505061288e565b808061287f90614304565b9150506127f7565b5060009150505b919050565b600360009054906101000a900473ffffffffffffffffffffffffffffffffffffffff1673ffffffffffffffffffffffffffffffffffffffff163373ffffffffffffffffffffffffffffffffffffffff1614612923576040517f08c379a000000000000000000000000000000000000000000000000000000000815260040161291a90613cf7565b60405180910390fd5b80600080848152602001908152602001600020600b01908051906020019061294c929190612e48565b507fb4bbfcb5a05975184d669825c39883eb95cd331561d429fd5e7c4097605846d5828260405161297e929190613f9a565b60405180910390a15050565b6060600160008373ffffffffffffffffffffffffffffffffffffffff1673ffffffffffffffffffffffffffffffffffffffff168152602001908152602001600020805480602002602001604051908101604052809291908181526020018280548015612a1557602002820191906000526020600020905b815481526020019060010190808311612a01575b50505050509050919050565b600360009054906101000a900473ffffffffffffffffffffffffffffffffffffffff1673ffffffffffffffffffffffffffffffffffffffff163373ffffffffffffffffffffffffffffffffffffffff1614612ab1576040517f08c379a0000000000000000000000000000000000000000000000000000000008152600401612aa890613cf7565b60405180910390fd5b600073ffffffffffffffffffffffffffffffffffffffff168173ffffffffffffffffffffffffffffffffffffffff161415612b21576040517f08c379a0000000000000000000000000000000000000000000000000000000008152600401612b1890613d97565b60405180910390fd5b8073ffffffffffffffffffffffffffffffffffffffff16600360009054906101000a900473ffffffffffffffffffffffffffffffffffffffff1673ffffffffffffffffffffffffffffffffffffffff167f8be0079c531659141344cd1fd0a4f28419497f9722a3daafe3b4186f6b6457e060405160405180910390a380600360006101000a81548173ffffffffffffffffffffffffffffffffffffffff021916908373ffffffffffffffffffffffffffffffffffffffff16021790555050565b600360009054906101000a900473ffffffffffffffffffffffffffffffffffffffff1673ffffffffffffffffffffffffffffffffffffffff163373ffffffffffffffffffffffffffffffffffffffff1614612c71576040517f08c379a0000000000000000000000000000000000000000000000000000000008152600401612c6890613cf7565b60405180910390fd5b6000806000838152602001908152602001600020905080600d0160009054906101000a900460ff168015612cb3575080600d0160019054906101000a900460ff165b612cf2576040517f08c379a0000000000000000000000000000000000000000000000000000000008152600401612ce990613cd7565b60405180910390fd5b60018160090160006101000a81548160ff02191690836003811115612d1a57612d1961437c565b5b02179055507f3d468abf1afea676998d9dd96e54b925bdcef67cdb02d1fda7f85a8863ebfcbb82604051612d4e9190613ea9565b60405180910390a15050565b60016020528160005260406000208181548110612d7657600080fd5b90600052602060002001600091509150505481565b828054612d97906142a1565b90600052602060002090601f016020900481019282612db95760008555612e00565b82601f10612dd257805160ff1916838001178555612e00565b82800160010185558215612e00579182015b82811115612dff578251825591602001919060010190612de4565b5b509050612e0d9190612f24565b5090565b60405180606001604052806060815260200160608152602001600073ffffffffffffffffffffffffffffffffffffffff1681525090565b828054828255906000526020600020908101928215612e97579160200282015b82811115612e96578251829080519060200190612e86929190612d8b565b5091602001919060010190612e68565b5b509050612ea49190612f41565b5090565b604051806101600160405280612ebc612e11565b8152602001612ec9612e11565b815260200160608152602001600081526020016060815260200160006003811115612ef757612ef661437c565b5b81526020016060815260200160608152602001606081526020016000151581526020016000151581525090565b5b80821115612f3d576000816000905550600101612f25565b5090565b5b80821115612f615760008181612f589190612f65565b50600101612f42565b5090565b508054612f71906142a1565b6000825580601f10612f835750612fa2565b601f016020900490600052602060002090810190612fa19190612f24565b5b50565b6000612fb8612fb384614080565b61405b565b90508083825260208201905082856020860282011115612fdb57612fda61443d565b5b60005b8581101561300b5781612ff188826130e5565b845260208401935060208301925050600181019050612fde565b5050509392505050565b6000613028613023846140ac565b61405b565b9050808382526020820190508285602086028201111561304b5761304a61443d565b5b60005b8581101561309957813567ffffffffffffffff81111561307157613070614438565b5b80860161307e8982613156565b8552602085019450602084019350505060018101905061304e565b5050509392505050565b60006130b66130b1846140d8565b61405b565b9050828152602081018484840111156130d2576130d1614442565b5b6130dd84828561425f565b509392505050565b6000813590506130f481614656565b92915050565b600082601f83011261310f5761310e614438565b5b813561311f848260208601612fa5565b91505092915050565b600082601f83011261313d5761313c614438565b5b813561314d848260208601613015565b91505092915050565b600082601f83011261316b5761316a614438565b5b813561317b8482602086016130a3565b91505092915050565b6000813590506131938161466d565b92915050565b6000602082840312156131af576131ae61444c565b5b60006131bd848285016130e5565b91505092915050565b600080604083850312156131dd576131dc61444c565b5b60006131eb858286016130e5565b925050602083013567ffffffffffffffff81111561320c5761320b614447565b5b61321885828601613156565b9150509250929050565b600080604083850312156132395761323861444c565b5b6000613247858286016130e5565b925050602061325885828601613184565b9150509250929050565b60008060008060008060008060008060006101608c8e0312156132885761328761444c565b5b60008c013567ffffffffffffffff8111156132a6576132a5614447565b5b6132b28e828f01613156565b9b505060208c013567ffffffffffffffff8111156132d3576132d2614447565b5b6132df8e828f01613156565b9a505060406132f08e828f016130e5565b99505060608c013567ffffffffffffffff81111561331157613310614447565b5b61331d8e828f01613156565b98505060808c013567ffffffffffffffff81111561333e5761333d614447565b5b61334a8e828f01613156565b97505060a061335b8e828f016130e5565b96505060c08c013567ffffffffffffffff81111561337c5761337b614447565b5b6133888e828f01613128565b95505060e08c013567ffffffffffffffff8111156133a9576133a8614447565b5b6133b58e828f01613128565b9450506101008c013567ffffffffffffffff8111156133d7576133d6614447565b5b6133e38e828f016130fa565b9350506101208c013567ffffffffffffffff81111561340557613404614447565b5b6134118e828f01613156565b9250506101408c013567ffffffffffffffff81111561343357613432614447565b5b61343f8e828f01613156565b9150509295989b509295989b9093969950565b6000602082840312156134685761346761444c565b5b600061347684828501613184565b91505092915050565b600080604083850312156134965761349561444c565b5b60006134a485828601613184565b925050602083013567ffffffffffffffff8111156134c5576134c4614447565b5b6134d185828601613128565b9150509250929050565b600080604083850312156134f2576134f161444c565b5b600061350085828601613184565b925050602083013567ffffffffffffffff81111561352157613520614447565b5b61352d85828601613156565b9150509250929050565b600080600080608085870312156135515761355061444c565b5b600061355f87828801613184565b945050602085013567ffffffffffffffff8111156135805761357f614447565b5b61358c87828801613156565b935050604085013567ffffffffffffffff8111156135ad576135ac614447565b5b6135b987828801613156565b92505060606135ca878288016130e5565b91505092959194509250565b600080600080600060a086880312156135f2576135f161444c565b5b600061360088828901613184565b955050602061361188828901613184565b945050604086013567ffffffffffffffff81111561363257613631614447565b5b61363e88828901613156565b935050606086013567ffffffffffffffff81111561365f5761365e614447565b5b61366b88828901613156565b925050608061367c888289016130e5565b9150509295509295909350565b600061369583836138e0565b905092915050565b60006136a98383613b83565b905092915050565b60006136bd8383613c31565b60208301905092915050565b6136d2816141f2565b82525050565b6136e1816141f2565b82525050565b60006136f282614139565b6136fc818561418c565b93508360208202850161370e85614109565b8060005b8581101561374a578484038952815161372b8582613689565b945061373683614165565b925060208a01995050600181019050613712565b50829750879550505050505092915050565b600061376782614139565b613771818561419d565b93508360208202850161378385614109565b8060005b858110156137bf57848403895281516137a08582613689565b94506137ab83614165565b925060208a01995050600181019050613787565b50829750879550505050505092915050565b60006137dc82614144565b6137e681856141ae565b9350836020820285016137f885614119565b8060005b858110156138345784840389528151613815858261369d565b945061382083614172565b925060208a019950506001810190506137fc565b50829750879550505050505092915050565b60006138518261414f565b61385b81856141bf565b935061386683614129565b8060005b8381101561389757815161387e88826136b1565b97506138898361417f565b92505060018101905061386a565b5085935050505092915050565b6138ad81614204565b82525050565b6138bc81614204565b82525050565b6138cb8161424d565b82525050565b6138da8161424d565b82525050565b60006138eb8261415a565b6138f581856141d0565b935061390581856020860161426e565b61390e81614451565b840191505092915050565b60006139248261415a565b61392e81856141e1565b935061393e81856020860161426e565b61394781614451565b840191505092915050565b600061395f602c836141e1565b915061396a82614462565b604082019050919050565b60006139826017836141e1565b915061398d826144b1565b602082019050919050565b60006139a56015836141e1565b91506139b0826144da565b602082019050919050565b60006139c86026836141e1565b91506139d382614503565b604082019050919050565b60006139eb6024836141e1565b91506139f682614552565b604082019050919050565b6000613a0e6018836141e1565b9150613a19826145a1565b602082019050919050565b6000613a31601d836141e1565b9150613a3c826145ca565b602082019050919050565b6000613a54602c836141e1565b9150613a5f826145f3565b604082019050919050565b6000610160830160008301518482036000860152613a888282613b83565b91505060208301518482036020860152613aa28282613b83565b91505060408301518482036040860152613abc82826137d1565b9150506060830151613ad16060860182613c31565b5060808301518482036080860152613ae982826138e0565b91505060a0830151613afe60a08601826138c2565b5060c083015184820360c0860152613b1682826138e0565b91505060e083015184820360e0860152613b3082826136e7565b915050610100830151848203610100860152613b4c82826138e0565b915050610120830151613b636101208601826138a4565b50610140830151613b786101408601826138a4565b508091505092915050565b60006060830160008301518482036000860152613ba082826138e0565b91505060208301518482036020860152613bba82826138e0565b9150506040830151613bcf60408601826136c9565b508091505092915050565b60006060830160008301518482036000860152613bf782826138e0565b91505060208301518482036020860152613c1182826138e0565b9150506040830151613c2660408601826136c9565b508091505092915050565b613c3a81614243565b82525050565b613c4981614243565b82525050565b6000602082019050613c6460008301846136d8565b92915050565b6000604082019050613c7f60008301856136d8565b8181036020830152613c918184613919565b90509392505050565b60006020820190508181036000830152613cb48184613846565b905092915050565b6000602082019050613cd160008301846138b3565b92915050565b60006020820190508181036000830152613cf081613952565b9050919050565b60006020820190508181036000830152613d1081613975565b9050919050565b60006020820190508181036000830152613d3081613998565b9050919050565b60006020820190508181036000830152613d50816139bb565b9050919050565b60006020820190508181036000830152613d70816139de565b9050919050565b60006020820190508181036000830152613d9081613a01565b9050919050565b60006020820190508181036000830152613db081613a24565b9050919050565b60006020820190508181036000830152613dd081613a47565b9050919050565b60006020820190508181036000830152613df18184613a6a565b905092915050565b6000610120820190508181036000830152613e14818c613bda565b90508181036020830152613e28818b613bda565b9050613e37604083018a613c40565b8181036060830152613e498189613919565b9050613e5860808301886138d1565b81810360a0830152613e6a8187613919565b905081810360c0830152613e7e8186613919565b9050613e8d60e08301856138b3565b613e9b6101008301846138b3565b9a9950505050505050505050565b6000602082019050613ebe6000830184613c40565b92915050565b6000604082019050613ed96000830185613c40565b613ee660208301846136d8565b9392505050565b6000608082019050613f026000830187613c40565b613f0f60208301866136d8565b613f1c60408301856136d8565b8181036060830152613f2e8184613919565b905095945050505050565b600060a082019050613f4e6000830188613c40565b613f5b60208301876136d8565b8181036040830152613f6d8186613919565b90508181036060830152613f818185613919565b9050613f9060808301846136d8565b9695505050505050565b6000604082019050613faf6000830185613c40565b8181036020830152613fc1818461375c565b90509392505050565b6000604082019050613fdf6000830185613c40565b8181036020830152613ff18184613919565b90509392505050565b600060a08201905061400f6000830188613c40565b61401c6020830187613c40565b818103604083015261402e8186613919565b905081810360608301526140428185613919565b905061405160808301846136d8565b9695505050505050565b6000614065614076565b905061407182826142d3565b919050565b6000604051905090565b600067ffffffffffffffff82111561409b5761409a614409565b5b602082029050602081019050919050565b600067ffffffffffffffff8211156140c7576140c6614409565b5b602082029050602081019050919050565b600067ffffffffffffffff8211156140f3576140f2614409565b5b6140fc82614451565b9050602081019050919050565b6000819050602082019050919050565b6000819050602082019050919050565b6000819050602082019050919050565b600081519050919050565b600081519050919050565b600081519050919050565b600081519050919050565b6000602082019050919050565b6000602082019050919050565b6000602082019050919050565b600082825260208201905092915050565b600082825260208201905092915050565b600082825260208201905092915050565b600082825260208201905092915050565b600082825260208201905092915050565b600082825260208201905092915050565b60006141fd82614223565b9050919050565b60008115159050919050565b600081905061421e82614642565b919050565b600073ffffffffffffffffffffffffffffffffffffffff82169050919050565b6000819050919050565b600061425882614210565b9050919050565b82818337600083830152505050565b60005b8381101561428c578082015181840152602081019050614271565b8381111561429b576000848401525b50505050565b600060028204905060018216806142b957607f821691505b602082108114156142cd576142cc6143ab565b5b50919050565b6142dc82614451565b810181811067ffffffffffffffff821117156142fb576142fa614409565b5b80604052505050565b600061430f82614243565b91507fffffffffffffffffffffffffffffffffffffffffffffffffffffffffffffffff8214156143425761434161434d565b5b600182019050919050565b7f4e487b7100000000000000000000000000000000000000000000000000000000600052601160045260246000fd5b7f4e487b7100000000000000000000000000000000000000000000000000000000600052602160045260246000fd5b7f4e487b7100000000000000000000000000000000000000000000000000000000600052602260045260246000fd5b7f4e487b7100000000000000000000000000000000000000000000000000000000600052603260045260246000fd5b7f4e487b7100000000000000000000000000000000000000000000000000000000600052604160045260246000fd5b600080fd5b600080fd5b600080fd5b600080fd5b600080fd5b6000601f19601f8301169050919050565b7f426f746820627269646520616e642067726f6f6d206d7573742067697665207460008201527f6865697220636f6e73656e740000000000000000000000000000000000000000602082015250565b7f43616c6c6572206973206e6f7420746865206f776e6572000000000000000000600082015250565b7f496e76616c6964207769746e65737320696e6465780000000000000000000000600082015250565b7f5769746e65737320617272617973206d757374206265206f6620657175616c2060008201527f6c656e6774680000000000000000000000000000000000000000000000000000602082015250565b7f4365727469666963617465206973206e6f7420696e2070656e64696e6720737460008201527f6174757300000000000000000000000000000000000000000000000000000000602082015250565b7f43616c6c6572206973206e6f7420617574686f72697a65640000000000000000600082015250565b7f4e6577206f776e657220697320746865207a65726f2061646472657373000000600082015250565b7f43616c6c6572206973206e6f74206f6e65206f6620746865206d61727269656460008201527f20696e646976696475616c730000000000000000000000000000000000000000602082015250565b600481106146535761465261437c565b5b50565b61465f816141f2565b811461466a57600080fd5b50565b61467681614243565b811461468157600080fd5b5056fea2646970667358221220fabf9ce85cbe6c5ab43b4c63876d4cb6bdabc3d1db428d0d713774f47fa4859464736f6c63430008070033",
  "linkReferences": {},
  "deployedLinkReferences": {}
}